{
  "_format": "hh-sol-artifact-1",
  "contractName": "WhaleToken",
  "sourceName": "contracts/test.sol",
  "abi": [
    {
      "inputs": [],
      "stateMutability": "nonpayable",
      "type": "constructor"
    },
    {
      "anonymous": false,
      "inputs": [
        {
          "indexed": true,
          "internalType": "address",
          "name": "owner",
          "type": "address"
        },
        {
          "indexed": true,
          "internalType": "address",
          "name": "approved",
          "type": "address"
        },
        {
          "indexed": true,
          "internalType": "uint256",
          "name": "tokenId",
          "type": "uint256"
        }
      ],
      "name": "Approval",
      "type": "event"
    },
    {
      "anonymous": false,
      "inputs": [
        {
          "indexed": true,
          "internalType": "address",
          "name": "owner",
          "type": "address"
        },
        {
          "indexed": true,
          "internalType": "address",
          "name": "operator",
          "type": "address"
        },
        {
          "indexed": false,
          "internalType": "bool",
          "name": "approved",
          "type": "bool"
        }
      ],
      "name": "ApprovalForAll",
      "type": "event"
    },
    {
      "anonymous": false,
      "inputs": [
        {
          "indexed": true,
          "internalType": "address",
          "name": "previousOwner",
          "type": "address"
        },
        {
          "indexed": true,
          "internalType": "address",
          "name": "newOwner",
          "type": "address"
        }
      ],
      "name": "OwnershipTransferred",
      "type": "event"
    },
    {
      "anonymous": false,
      "inputs": [
        {
          "indexed": true,
          "internalType": "address",
          "name": "from",
          "type": "address"
        },
        {
          "indexed": true,
          "internalType": "address",
          "name": "to",
          "type": "address"
        },
        {
          "indexed": true,
          "internalType": "uint256",
          "name": "tokenId",
          "type": "uint256"
        }
      ],
      "name": "Transfer",
      "type": "event"
    },
    {
      "anonymous": false,
      "inputs": [
        {
          "indexed": false,
          "internalType": "uint256",
          "name": "id",
          "type": "uint256"
        },
        {
          "indexed": true,
          "internalType": "address",
          "name": "creator",
          "type": "address"
        },
        {
          "indexed": true,
          "internalType": "string",
          "name": "tokenUri",
          "type": "string"
        }
      ],
      "name": "minting",
      "type": "event"
    },
    {
      "inputs": [
        {
          "internalType": "bool",
          "name": "auctionstart",
          "type": "bool"
        }
      ],
      "name": "ActiveAuction",
      "outputs": [],
      "stateMutability": "nonpayable",
      "type": "function"
    },
    {
      "inputs": [],
      "name": "AuctionPeriod",
      "outputs": [
        {
          "internalType": "uint256",
          "name": "",
          "type": "uint256"
        }
      ],
      "stateMutability": "view",
      "type": "function"
    },
    {
      "inputs": [],
      "name": "AuctionStartPrice",
      "outputs": [
        {
          "internalType": "uint256",
          "name": "",
          "type": "uint256"
        }
      ],
      "stateMutability": "view",
      "type": "function"
    },
    {
      "inputs": [],
      "name": "MINT_PRICE",
      "outputs": [
        {
          "internalType": "uint256",
          "name": "",
          "type": "uint256"
        }
      ],
      "stateMutability": "view",
      "type": "function"
    },
    {
      "inputs": [],
      "name": "MaxSupply",
      "outputs": [
        {
          "internalType": "uint256",
          "name": "",
          "type": "uint256"
        }
      ],
      "stateMutability": "view",
      "type": "function"
    },
    {
      "inputs": [],
      "name": "Minimumprice",
      "outputs": [
        {
          "internalType": "uint256",
          "name": "",
          "type": "uint256"
        }
      ],
      "stateMutability": "view",
      "type": "function"
    },
    {
      "inputs": [],
      "name": "PiceDropAmount",
      "outputs": [
        {
          "internalType": "uint256",
          "name": "",
          "type": "uint256"
        }
      ],
      "stateMutability": "view",
      "type": "function"
    },
    {
      "inputs": [],
      "name": "PriceDropPeriod",
      "outputs": [
        {
          "internalType": "uint256",
          "name": "",
          "type": "uint256"
        }
      ],
      "stateMutability": "view",
      "type": "function"
    },
    {
      "inputs": [],
      "name": "StartTime",
      "outputs": [
        {
          "internalType": "uint256",
          "name": "",
          "type": "uint256"
        }
      ],
      "stateMutability": "view",
      "type": "function"
    },
    {
      "inputs": [
        {
          "internalType": "address",
          "name": "userAddress",
          "type": "address"
        }
      ],
      "name": "addAdmin",
      "outputs": [],
      "stateMutability": "nonpayable",
      "type": "function"
    },
    {
      "inputs": [
        {
          "internalType": "address[]",
          "name": "whitelister",
          "type": "address[]"
        }
      ],
      "name": "addwhitelister",
      "outputs": [],
      "stateMutability": "nonpayable",
      "type": "function"
    },
    {
      "inputs": [
        {
          "internalType": "address",
          "name": "to",
          "type": "address"
        },
        {
          "internalType": "uint256",
          "name": "tokenId",
          "type": "uint256"
        }
      ],
      "name": "approve",
      "outputs": [],
      "stateMutability": "nonpayable",
      "type": "function"
    },
    {
      "inputs": [],
      "name": "auctionlimit",
      "outputs": [
        {
          "internalType": "uint256",
          "name": "",
          "type": "uint256"
        }
      ],
      "stateMutability": "view",
      "type": "function"
    },
    {
      "inputs": [
        {
          "internalType": "address",
          "name": "owner",
          "type": "address"
        }
      ],
      "name": "balanceOf",
      "outputs": [
        {
          "internalType": "uint256",
          "name": "",
          "type": "uint256"
        }
      ],
      "stateMutability": "view",
      "type": "function"
    },
    {
      "inputs": [
        {
          "internalType": "address",
          "name": "delBeneficiary",
          "type": "address"
        }
      ],
      "name": "deleteBeneficiary",
      "outputs": [],
      "stateMutability": "nonpayable",
      "type": "function"
    },
    {
      "inputs": [
        {
          "internalType": "address[]",
          "name": "deladdress",
          "type": "address[]"
        }
      ],
      "name": "delwhitelister",
      "outputs": [],
      "stateMutability": "nonpayable",
      "type": "function"
    },
    {
      "inputs": [
        {
          "internalType": "address",
          "name": "deleteaddress",
          "type": "address"
        }
      ],
      "name": "disableAdmin",
      "outputs": [],
      "stateMutability": "nonpayable",
      "type": "function"
    },
    {
      "inputs": [],
      "name": "getAdmin",
      "outputs": [
        {
          "internalType": "address[]",
          "name": "",
          "type": "address[]"
        }
      ],
      "stateMutability": "view",
      "type": "function"
    },
    {
      "inputs": [],
      "name": "getAdresses",
      "outputs": [
        {
          "internalType": "address[]",
          "name": "",
          "type": "address[]"
        }
      ],
      "stateMutability": "view",
      "type": "function"
    },
    {
      "inputs": [
        {
          "internalType": "uint256",
          "name": "tokenId",
          "type": "uint256"
        }
      ],
      "name": "getApproved",
      "outputs": [
        {
          "internalType": "address",
          "name": "",
          "type": "address"
        }
      ],
      "stateMutability": "view",
      "type": "function"
    },
    {
      "inputs": [],
      "name": "getAuctionPrice",
      "outputs": [
        {
          "internalType": "uint256",
          "name": "",
          "type": "uint256"
        }
      ],
      "stateMutability": "view",
      "type": "function"
    },
    {
      "inputs": [],
      "name": "getAuctionStartPrice",
      "outputs": [
        {
          "internalType": "uint256",
          "name": "",
          "type": "uint256"
        }
      ],
      "stateMutability": "view",
      "type": "function"
    },
    {
      "inputs": [],
      "name": "getBalance",
      "outputs": [
        {
          "internalType": "uint256",
          "name": "",
          "type": "uint256"
        }
      ],
      "stateMutability": "view",
      "type": "function"
    },
    {
      "inputs": [],
      "name": "getBeneAddress",
      "outputs": [
        {
          "internalType": "address",
          "name": "",
          "type": "address"
        }
      ],
      "stateMutability": "view",
      "type": "function"
    },
    {
      "inputs": [],
      "name": "getLimit",
      "outputs": [
        {
          "internalType": "uint256",
          "name": "",
          "type": "uint256"
        }
      ],
      "stateMutability": "view",
      "type": "function"
    },
    {
      "inputs": [],
      "name": "getMinimumprice",
      "outputs": [
        {
          "internalType": "uint256",
          "name": "",
          "type": "uint256"
        }
      ],
      "stateMutability": "view",
      "type": "function"
    },
    {
      "inputs": [],
      "name": "getMintPrice",
      "outputs": [
        {
          "internalType": "uint256",
          "name": "",
          "type": "uint256"
        }
      ],
      "stateMutability": "view",
      "type": "function"
    },
    {
      "inputs": [],
      "name": "getPiceDropAmount",
      "outputs": [
        {
          "internalType": "uint256",
          "name": "",
          "type": "uint256"
        }
      ],
      "stateMutability": "view",
      "type": "function"
    },
    {
      "inputs": [],
      "name": "getPriceDropPeriod",
      "outputs": [
        {
          "internalType": "uint256",
          "name": "",
          "type": "uint256"
        }
      ],
      "stateMutability": "view",
      "type": "function"
    },
    {
      "inputs": [],
      "name": "getWhitelimit",
      "outputs": [
        {
          "internalType": "uint256",
          "name": "",
          "type": "uint256"
        }
      ],
      "stateMutability": "view",
      "type": "function"
    },
    {
      "inputs": [],
      "name": "getcurrentId",
      "outputs": [
        {
          "internalType": "uint256",
          "name": "",
          "type": "uint256"
        }
      ],
      "stateMutability": "view",
      "type": "function"
    },
    {
      "inputs": [],
      "name": "getid",
      "outputs": [
        {
          "internalType": "uint256",
          "name": "",
          "type": "uint256"
        }
      ],
      "stateMutability": "view",
      "type": "function"
    },
    {
      "inputs": [],
      "name": "getwhitelist",
      "outputs": [
        {
          "internalType": "address[]",
          "name": "",
          "type": "address[]"
        }
      ],
      "stateMutability": "view",
      "type": "function"
    },
    {
      "inputs": [],
      "name": "getwhitelistprice",
      "outputs": [
        {
          "internalType": "uint256",
          "name": "",
          "type": "uint256"
        }
      ],
      "stateMutability": "view",
      "type": "function"
    },
    {
      "inputs": [
        {
          "internalType": "address",
          "name": "owner",
          "type": "address"
        },
        {
          "internalType": "address",
          "name": "operator",
          "type": "address"
        }
      ],
      "name": "isApprovedForAll",
      "outputs": [
        {
          "internalType": "bool",
          "name": "",
          "type": "bool"
        }
      ],
      "stateMutability": "view",
      "type": "function"
    },
    {
      "inputs": [
        {
          "internalType": "address",
          "name": "whitelister",
          "type": "address"
        }
      ],
      "name": "iswhitelister",
      "outputs": [
        {
          "internalType": "bool",
          "name": "",
          "type": "bool"
        }
      ],
      "stateMutability": "view",
      "type": "function"
    },
    {
      "inputs": [],
      "name": "mint",
      "outputs": [
        {
          "internalType": "uint256",
          "name": "",
          "type": "uint256"
        }
      ],
      "stateMutability": "payable",
      "type": "function"
    },
    {
      "inputs": [
        {
          "internalType": "address",
          "name": "",
          "type": "address"
        }
      ],
      "name": "mintcount",
      "outputs": [
        {
          "internalType": "uint256",
          "name": "",
          "type": "uint256"
        }
      ],
      "stateMutability": "view",
      "type": "function"
    },
    {
      "inputs": [
        {
          "internalType": "address",
          "name": "",
          "type": "address"
        }
      ],
      "name": "mintids",
      "outputs": [
        {
          "internalType": "uint256",
          "name": "",
          "type": "uint256"
        }
      ],
      "stateMutability": "view",
      "type": "function"
    },
    {
      "inputs": [
        {
          "internalType": "uint256",
          "name": "count",
          "type": "uint256"
        }
      ],
      "name": "mints",
      "outputs": [],
      "stateMutability": "payable",
      "type": "function"
    },
    {
      "inputs": [],
      "name": "name",
      "outputs": [
        {
          "internalType": "string",
          "name": "",
          "type": "string"
        }
      ],
      "stateMutability": "view",
      "type": "function"
    },
    {
      "inputs": [],
      "name": "owner",
      "outputs": [
        {
          "internalType": "address",
          "name": "",
          "type": "address"
        }
      ],
      "stateMutability": "view",
      "type": "function"
    },
    {
      "inputs": [
        {
          "internalType": "uint256",
          "name": "tokenId",
          "type": "uint256"
        }
      ],
      "name": "ownerOf",
      "outputs": [
        {
          "internalType": "address",
          "name": "",
          "type": "address"
        }
      ],
      "stateMutability": "view",
      "type": "function"
    },
    {
      "inputs": [],
      "name": "premint",
      "outputs": [
        {
          "internalType": "bool",
          "name": "",
          "type": "bool"
        }
      ],
      "stateMutability": "view",
      "type": "function"
    },
    {
      "inputs": [
        {
          "internalType": "uint256",
          "name": "count",
          "type": "uint256"
        }
      ],
      "name": "premints",
      "outputs": [],
      "stateMutability": "payable",
      "type": "function"
    },
    {
      "inputs": [],
      "name": "renounceOwnership",
      "outputs": [],
      "stateMutability": "nonpayable",
      "type": "function"
    },
    {
      "inputs": [],
      "name": "reveal",
      "outputs": [],
      "stateMutability": "nonpayable",
      "type": "function"
    },
    {
      "inputs": [
        {
          "internalType": "address",
          "name": "from",
          "type": "address"
        },
        {
          "internalType": "address",
          "name": "to",
          "type": "address"
        },
        {
          "internalType": "uint256",
          "name": "tokenId",
          "type": "uint256"
        }
      ],
      "name": "safeTransferFrom",
      "outputs": [],
      "stateMutability": "nonpayable",
      "type": "function"
    },
    {
      "inputs": [
        {
          "internalType": "address",
          "name": "from",
          "type": "address"
        },
        {
          "internalType": "address",
          "name": "to",
          "type": "address"
        },
        {
          "internalType": "uint256",
          "name": "tokenId",
          "type": "uint256"
        },
        {
          "internalType": "bytes",
          "name": "_data",
          "type": "bytes"
        }
      ],
      "name": "safeTransferFrom",
      "outputs": [],
      "stateMutability": "nonpayable",
      "type": "function"
    },
    {
      "inputs": [
        {
          "internalType": "address",
          "name": "operator",
          "type": "address"
        },
        {
          "internalType": "bool",
          "name": "approved",
          "type": "bool"
        }
      ],
      "name": "setApprovalForAll",
      "outputs": [],
      "stateMutability": "nonpayable",
      "type": "function"
    },
    {
      "inputs": [
        {
          "internalType": "uint256",
          "name": "newstartprice",
          "type": "uint256"
        },
        {
          "internalType": "uint256",
          "name": "newdropprice",
          "type": "uint256"
        },
        {
          "internalType": "uint256",
          "name": "newdropperiod",
          "type": "uint256"
        },
        {
          "internalType": "uint256",
          "name": "newminimum",
          "type": "uint256"
        }
      ],
      "name": "setAuctionOption",
      "outputs": [],
      "stateMutability": "nonpayable",
      "type": "function"
    },
    {
      "inputs": [
        {
          "internalType": "uint256",
          "name": "limit",
          "type": "uint256"
        }
      ],
      "name": "setauctionlimit",
      "outputs": [],
      "stateMutability": "nonpayable",
      "type": "function"
    },
    {
      "inputs": [
        {
          "internalType": "bool",
          "name": "start",
          "type": "bool"
        }
      ],
      "name": "setpremint",
      "outputs": [],
      "stateMutability": "nonpayable",
      "type": "function"
    },
    {
      "inputs": [
        {
          "internalType": "uint256",
          "name": "newprice",
          "type": "uint256"
        }
      ],
      "name": "setwhitelistprice",
      "outputs": [],
      "stateMutability": "nonpayable",
      "type": "function"
    },
    {
      "inputs": [
        {
          "internalType": "bool",
          "name": "start",
          "type": "bool"
        }
      ],
      "name": "setwhitelistsale",
      "outputs": [],
      "stateMutability": "nonpayable",
      "type": "function"
    },
    {
      "inputs": [
        {
          "internalType": "bool",
          "name": "start",
          "type": "bool"
        }
      ],
      "name": "startsale",
      "outputs": [],
      "stateMutability": "nonpayable",
      "type": "function"
    },
    {
      "inputs": [
        {
          "internalType": "bytes4",
          "name": "interfaceId",
          "type": "bytes4"
        }
      ],
      "name": "supportsInterface",
      "outputs": [
        {
          "internalType": "bool",
          "name": "",
          "type": "bool"
        }
      ],
      "stateMutability": "view",
      "type": "function"
    },
    {
      "inputs": [],
      "name": "symbol",
      "outputs": [
        {
          "internalType": "string",
          "name": "",
          "type": "string"
        }
      ],
      "stateMutability": "view",
      "type": "function"
    },
    {
      "inputs": [
        {
          "internalType": "uint256",
          "name": "index",
          "type": "uint256"
        }
      ],
      "name": "tokenByIndex",
      "outputs": [
        {
          "internalType": "uint256",
          "name": "",
          "type": "uint256"
        }
      ],
      "stateMutability": "view",
      "type": "function"
    },
    {
      "inputs": [],
      "name": "tokenLimit",
      "outputs": [
        {
          "internalType": "uint256",
          "name": "",
          "type": "uint256"
        }
      ],
      "stateMutability": "view",
      "type": "function"
    },
    {
      "inputs": [
        {
          "internalType": "address",
          "name": "owner",
          "type": "address"
        },
        {
          "internalType": "uint256",
          "name": "index",
          "type": "uint256"
        }
      ],
      "name": "tokenOfOwnerByIndex",
      "outputs": [
        {
          "internalType": "uint256",
          "name": "",
          "type": "uint256"
        }
      ],
      "stateMutability": "view",
      "type": "function"
    },
    {
      "inputs": [
        {
          "internalType": "uint256",
          "name": "tokenId",
          "type": "uint256"
        }
      ],
      "name": "tokenURI",
      "outputs": [
        {
          "internalType": "string",
          "name": "",
          "type": "string"
        }
      ],
      "stateMutability": "view",
      "type": "function"
    },
    {
      "inputs": [
        {
          "internalType": "address",
          "name": "_owner",
          "type": "address"
        }
      ],
      "name": "tokensOfOwner",
      "outputs": [
        {
          "internalType": "uint256[]",
          "name": "",
          "type": "uint256[]"
        }
      ],
      "stateMutability": "view",
      "type": "function"
    },
    {
      "inputs": [],
      "name": "totalSupply",
      "outputs": [
        {
          "internalType": "uint256",
          "name": "",
          "type": "uint256"
        }
      ],
      "stateMutability": "view",
      "type": "function"
    },
    {
      "inputs": [
        {
          "internalType": "address",
          "name": "from",
          "type": "address"
        },
        {
          "internalType": "address",
          "name": "to",
          "type": "address"
        },
        {
          "internalType": "uint256",
          "name": "tokenId",
          "type": "uint256"
        }
      ],
      "name": "transferFrom",
      "outputs": [],
      "stateMutability": "nonpayable",
      "type": "function"
    },
    {
      "inputs": [
        {
          "internalType": "address",
          "name": "newOwner",
          "type": "address"
        }
      ],
      "name": "transferOwnership",
      "outputs": [],
      "stateMutability": "nonpayable",
      "type": "function"
    },
    {
      "inputs": [
        {
          "internalType": "address",
          "name": "_newBeneficiary",
          "type": "address"
        }
      ],
      "name": "updateBeneficiary",
      "outputs": [],
      "stateMutability": "nonpayable",
      "type": "function"
    },
    {
      "inputs": [
        {
          "internalType": "uint256",
          "name": "mintPrice",
          "type": "uint256"
        }
      ],
      "name": "updateMintPrice",
      "outputs": [],
      "stateMutability": "nonpayable",
      "type": "function"
    },
    {
      "inputs": [
        {
          "internalType": "uint256",
          "name": "_tokenLimit",
          "type": "uint256"
        }
      ],
      "name": "updateTokenLimit",
      "outputs": [],
      "stateMutability": "nonpayable",
      "type": "function"
    },
    {
      "inputs": [
        {
          "internalType": "uint256",
          "name": "_tokenLimit",
          "type": "uint256"
        }
      ],
      "name": "updateWhiteLimit",
      "outputs": [],
      "stateMutability": "nonpayable",
      "type": "function"
    },
    {
      "inputs": [],
      "name": "wallet",
      "outputs": [
        {
          "internalType": "uint256",
          "name": "",
          "type": "uint256"
        }
      ],
      "stateMutability": "view",
      "type": "function"
    },
    {
      "inputs": [],
      "name": "whitelisterprice",
      "outputs": [
        {
          "internalType": "uint256",
          "name": "",
          "type": "uint256"
        }
      ],
      "stateMutability": "view",
      "type": "function"
    },
    {
      "inputs": [],
      "name": "whitelistlimit",
      "outputs": [
        {
          "internalType": "uint256",
          "name": "",
          "type": "uint256"
        }
      ],
      "stateMutability": "view",
      "type": "function"
    }
  ],
  "bytecode": "0x6080604052600560128190556002601355601455600060168190556017805460ff199081169091556018919091556019805490911690556701bc16d674ec8000601a819055601b55670de0b6b3a7640000601c81905567058d15e176280000601d819055603c601e819055662386f26fc10000601f81905590929091620000869162000351565b6200009291906200036b565b6200009e91906200038e565b6021556122b86022556023805462ffffff191690556040805160808101909152604480825262003b6960208301398051620000e29160259160209091019062000295565b5060405180608001604052806044815260200162003bad604491398051620001139160269160209091019062000295565b503480156200012157600080fd5b5060408051808201825260128152712bb2b0b63a343c902bb430b6329021b63ab160711b60208083019182528351808501909452600384526257574360e81b908401528151919291620001779160009162000295565b5080516200018d90600190602084019062000295565b5050506000620001a26200029160201b60201c565b600a80546001600160a01b0319166001600160a01b038316908117909155604051919250906000907f8be0079c531659141344cd1fd0a4f28419497f9722a3daafe3b4186f6b6457e0908290a35060158054336001600160a01b03199182168117909255600e805460018181019092557fbb7b4a454dc3493923482f07822329ed19e8244eff582cc204f8554c3620c3fd0180548316841790556000838152600b60205260408120805460ff191683179055600d8054928301815590527fd7b6990105719101dabeb77144f2a3385c8033acd3af97e9423a695e81ad1eb50180549091169091179055620003ed565b3390565b828054620002a390620003b0565b90600052602060002090601f016020900481019282620002c7576000855562000312565b82601f10620002e257805160ff191683800117855562000312565b8280016001018555821562000312579182015b8281111562000312578251825591602001919060010190620002f5565b506200032092915062000324565b5090565b5b8082111562000320576000815560010162000325565b634e487b7160e01b600052601160045260246000fd5b6000828210156200036657620003666200033b565b500390565b6000826200038957634e487b7160e01b600052601260045260246000fd5b500490565b6000816000190483118215151615620003ab57620003ab6200033b565b500290565b600181811c90821680620003c557607f821691505b60208210811415620003e757634e487b7160e01b600052602260045260246000fd5b50919050565b61376c80620003fd6000396000f3fe6080604052600436106104255760003560e01c8063751e9a9c11610229578063b88d4fde1161012e578063da3648c6116100b6578063f2fde38b1161007a578063f2fde38b14610bef578063f513f38e14610c0f578063f59f93c314610c31578063fc4a4a1e14610c47578063ffeb603714610c5d57600080fd5b8063da3648c614610b2d578063e918f9df14610b43578063e985e9c514610b59578063ec15db0b14610ba2578063ed7b4ea914610bc257600080fd5b8063c002d23d116100fd578063c002d23d14610aad578063c33a733414610ac3578063c87b56dd14610ad8578063c881a16914610af8578063d3ea981914610b0d57600080fd5b8063b88d4fde14610a4c578063b94a6d0614610a6c578063bac54c9114610a82578063bc917ba814610a9757600080fd5b80639a6c387a116101b1578063a7f93ebd11610180578063a7f93ebd146109cc578063b295a00e146109e1578063b2d9a2ac146109f6578063b36c128414610a16578063b4bcd9bc14610a2c57600080fd5b80639a6c387a14610955578063a1156b881461096a578063a22cb46514610997578063a475b5dd146109b757600080fd5b80638156a0e9116101f85780638156a0e9146108c05780638462151c146108d55780638bdc3f7f146109025780638da5cb5b1461092257806395d89b411461094057600080fd5b8063751e9a9c146108565780637d3bca76146108765780637fb1f10a146108965780637ff2eb57146108ab57600080fd5b806342842e0e1161032f5780635f93b125116102b75780636a0815c6116102865780636a0815c6146107a65780636e9960c3146107df578063704802751461080157806370a0823114610821578063715018a61461084157600080fd5b80635f93b125146107335780636350b2c2146107535780636352211e1461076657806365ef30441461078657600080fd5b80634ddade5f116102fe5780634ddade5f146106bb5780634f6ccce7146106d1578063521eb273146106f157806356c7627e1461070757806356fb469d1461071d57600080fd5b806342842e0e146106575780634368a7af1461067757806348a1e66b1461068c5780634bd25c6f146106a657600080fd5b806318160ddd116103b257806323b872dd1161038157806323b872dd146105c457806328df0f22146105e45780632f745c59146106045780633d3e12ff146106245780633f11160d1461063757600080fd5b806318160ddd146105645780631add2351146105795780631e2cc8d31461059957806321715b3d146105af57600080fd5b8063081812fc116103f9578063081812fc146104c2578063095ea7b3146104fa5780630aaffd2a1461051a57806312065fe01461053a5780631249c58b1461055c57600080fd5b8062728e461461042a57806301ffc9a71461044c5780630221311b1461048157806306fdde03146104a0575b600080fd5b34801561043657600080fd5b5061044a610445366004612f9f565b610c7d565b005b34801561045857600080fd5b5061046c610467366004612fce565b610ca3565b60405190151581526020015b60405180910390f35b34801561048d57600080fd5b50601c545b604051908152602001610478565b3480156104ac57600080fd5b506104b5610cce565b6040516104789190613043565b3480156104ce57600080fd5b506104e26104dd366004612f9f565b610d60565b6040516001600160a01b039091168152602001610478565b34801561050657600080fd5b5061044a610515366004613072565b610dfa565b34801561052657600080fd5b5061044a61053536600461309c565b610f10565b34801561054657600080fd5b5033600090815260116020526040902054610492565b610492610f83565b34801561057057600080fd5b50600854610492565b34801561058557600080fd5b5061044a6105943660046130c7565b611018565b3480156105a557600080fd5b5061049260215481565b3480156105bb57600080fd5b50610492611061565b3480156105d057600080fd5b5061044a6105df3660046130e2565b61106d565b3480156105f057600080fd5b5061044a6105ff36600461311e565b61109e565b34801561061057600080fd5b5061049261061f366004613072565b611288565b61044a610632366004612f9f565b61131e565b34801561064357600080fd5b5061044a610652366004612f9f565b6113d5565b34801561066357600080fd5b5061044a6106723660046130e2565b6113fb565b34801561068357600080fd5b50601354610492565b34801561069857600080fd5b5060175461046c9060ff1681565b3480156106b257600080fd5b50610492611416565b3480156106c757600080fd5b50610492601a5481565b3480156106dd57600080fd5b506104926106ec366004612f9f565b61149e565b3480156106fd57600080fd5b5061049260165481565b34801561071357600080fd5b5061049260125481565b34801561072957600080fd5b50610492601c5481565b34801561073f57600080fd5b5061044a61074e366004612f9f565b611531565b61044a610761366004612f9f565b611557565b34801561077257600080fd5b506104e2610781366004612f9f565b6118e5565b34801561079257600080fd5b5061044a6107a13660046130c7565b61195c565b3480156107b257600080fd5b5061046c6107c136600461309c565b6001600160a01b03166000908152600f602052604090205460ff1690565b3480156107eb57600080fd5b506107f4611990565b6040516104789190613193565b34801561080d57600080fd5b5061044a61081c36600461309c565b611a13565b34801561082d57600080fd5b5061049261083c36600461309c565b611aef565b34801561084d57600080fd5b5061044a611b76565b34801561086257600080fd5b5061044a61087136600461309c565b611bea565b34801561088257600080fd5b5061044a61089136600461309c565b611d58565b3480156108a257600080fd5b50601f54610492565b3480156108b757600080fd5b50601e54610492565b3480156108cc57600080fd5b50601d54610492565b3480156108e157600080fd5b506108f56108f036600461309c565b611e86565b60405161047891906131e0565b34801561090e57600080fd5b5061044a61091d3660046130c7565b611f45565b34801561092e57600080fd5b50600a546001600160a01b03166104e2565b34801561094c57600080fd5b506104b5611f79565b34801561096157600080fd5b506107f4611f88565b34801561097657600080fd5b5061049261098536600461309c565b60116020526000908152604090205481565b3480156109a357600080fd5b5061044a6109b2366004613218565b61200a565b3480156109c357600080fd5b5061044a6120cf565b3480156109d857600080fd5b50601b54610492565b3480156109ed57600080fd5b50601254610492565b348015610a0257600080fd5b5061044a610a1136600461324b565b61210c565b348015610a2257600080fd5b5061049260225481565b348015610a3857600080fd5b5061044a610a4736600461311e565b61216a565b348015610a5857600080fd5b5061044a610a67366004613293565b612258565b348015610a7857600080fd5b5061049260135481565b348015610a8e57600080fd5b50601a54610492565b348015610aa357600080fd5b50610492601f5481565b348015610ab957600080fd5b50610492601b5481565b348015610acf57600080fd5b506104e2612290565b348015610ae457600080fd5b506104b5610af3366004612f9f565b6122c1565b348015610b0457600080fd5b506107f46123de565b348015610b1957600080fd5b5061044a610b28366004612f9f565b612460565b348015610b3957600080fd5b50610492601d5481565b348015610b4f57600080fd5b50610492601e5481565b348015610b6557600080fd5b5061046c610b7436600461336f565b6001600160a01b03918216600090815260056020908152604080832093909416825291909152205460ff1690565b348015610bae57600080fd5b5061044a610bbd366004612f9f565b612486565b348015610bce57600080fd5b50610492610bdd36600461309c565b60246020526000908152604090205481565b348015610bfb57600080fd5b5061044a610c0a36600461309c565b6124b5565b348015610c1b57600080fd5b5033600090815260246020526040902054610492565b348015610c3d57600080fd5b5061049260145481565b348015610c5357600080fd5b5061049260205481565b348015610c6957600080fd5b5061044a610c783660046130c7565b6125a0565b336000908152600b602052604090205460ff161515600114610c9e57600080fd5b601b55565b60006001600160e01b0319821663780e9d6360e01b1480610cc85750610cc8826125e4565b92915050565b606060008054610cdd90613399565b80601f0160208091040260200160405190810160405280929190818152602001828054610d0990613399565b8015610d565780601f10610d2b57610100808354040283529160200191610d56565b820191906000526020600020905b815481529060010190602001808311610d3957829003601f168201915b5050505050905090565b6000818152600260205260408120546001600160a01b0316610dde5760405162461bcd60e51b815260206004820152602c60248201527f4552433732313a20617070726f76656420717565727920666f72206e6f6e657860448201526b34b9ba32b73a103a37b5b2b760a11b60648201526084015b60405180910390fd5b506000908152600460205260409020546001600160a01b031690565b6000610e05826118e5565b9050806001600160a01b0316836001600160a01b03161415610e735760405162461bcd60e51b815260206004820152602160248201527f4552433732313a20617070726f76616c20746f2063757272656e74206f776e656044820152603960f91b6064820152608401610dd5565b336001600160a01b0382161480610e8f5750610e8f8133610b74565b610f015760405162461bcd60e51b815260206004820152603860248201527f4552433732313a20617070726f76652063616c6c6572206973206e6f74206f7760448201527f6e6572206e6f7220617070726f76656420666f7220616c6c00000000000000006064820152608401610dd5565b610f0b8383612634565b505050565b336000908152600b602052604090205460ff161515600114610f3157600080fd5b600e80546001810182556000919091527fbb7b4a454dc3493923482f07822329ed19e8244eff582cc204f8554c3620c3fd0180546001600160a01b0319166001600160a01b0392909216919091179055565b6000610f93600c80546001019055565b6000610f9e600c5490565b9050610faa33826126a2565b610fb26127f0565b600e54601654610fc39060016133e4565b610fcd9190613412565b601681905550600e60165481548110610fe857610fe8613426565b600091825260209091200154601580546001600160a01b0319166001600160a01b03909216919091179055919050565b600a546001600160a01b031633146110425760405162461bcd60e51b8152600401610dd59061343c565b6023805460ff1916821580159190911790915561105e57426020555b50565b600080610cc8600c5490565b611077338261286c565b6110935760405162461bcd60e51b8152600401610dd590613471565b610f0b838383612963565b336000908152600b602052604090205460ff1615156001146110bf57600080fd5b60005b81811015610f0b576000600f60008585858181106110e2576110e2613426565b90506020020160208101906110f7919061309c565b6001600160a01b0316815260208101919091526040016000908120805460ff191692151592909217909155805b6010548110156111a65784848481811061114057611140613426565b9050602002016020810190611155919061309c565b6001600160a01b03166010828154811061117157611171613426565b6000918252602090912001546001600160a01b03161415611194578091506111a6565b8061119e816134c2565b915050611124565b505b6010546111b7906001906134dd565b8110156112425760106111cb8260016133e4565b815481106111db576111db613426565b600091825260209091200154601080546001600160a01b03909216918390811061120757611207613426565b600091825260209091200180546001600160a01b0319166001600160a01b03929092169190911790558061123a816134c2565b9150506111a8565b6010805480611253576112536134f4565b600082815260209020810160001990810180546001600160a01b03191690550190555080611280816134c2565b9150506110c2565b600061129383611aef565b82106112f55760405162461bcd60e51b815260206004820152602b60248201527f455243373231456e756d657261626c653a206f776e657220696e646578206f7560448201526a74206f6620626f756e647360a81b6064820152608401610dd5565b506001600160a01b03919091166000908152600660209081526040808320938352929052205490565b336000908152600b602052604090205460ff16151560011461133f57600080fd5b60175460ff16156113835760405162461bcd60e51b815260206004820152600e60248201526d0a0e4cadad2dce840ccd2dcd2e6d60931b6044820152606401610dd5565b60005b818110156113a957611396610f83565b50806113a1816134c2565b915050611386565b506018546113b89060016133e4565b60188190556008141561105e576017805460ff1916600117905550565b336000908152600b602052604090205460ff1615156001146113f657600080fd5b601455565b610f0b83838360405180602001604052806000815250612258565b602354600090610100900460ff16156114305750601a5490565b60195460ff16156114425750601b5490565b60215460205461145290426134dd565b1061145e5750601d5490565b6000601e546020544261147191906134dd565b61147b919061350a565b9050601f548161148b919061351e565b601c5461149891906134dd565b91505090565b60006114a960085490565b821061150c5760405162461bcd60e51b815260206004820152602c60248201527f455243373231456e756d657261626c653a20676c6f62616c20696e646578206f60448201526b7574206f6620626f756e647360a01b6064820152608401610dd5565b6008828154811061151f5761151f613426565b90600052602060002001549050919050565b336000908152600b602052604090205460ff16151560011461155257600080fd5b601255565b6000811161159c5760405162461bcd60e51b815260206004820152601260248201527106d75737420626967676572207468616e20360741b6044820152606401610dd5565b60175460ff166115e35760405162461bcd60e51b81526020600482015260126024820152710e0e4cadad2dce840dcdee840ccd2dcd2e6d60731b6044820152606401610dd5565b602254816115f060085490565b6115fa91906133e4565b111561163a5760405162461bcd60e51b815260206004820152600f60248201526e09ac2f040e6eae0e0d8f2407070707608b1b6044820152606401610dd5565b600081611645611416565b61164f919061351e565b9050803410156116965760405162461bcd60e51b8152602060048201526012602482015271494e53554646494349454e542046554e445360701b6044820152606401610dd5565b60235460ff161561173957601454336000908152601160205260409020546116bf9084906133e4565b11156116dd5760405162461bcd60e51b8152600401610dd59061353d565b33600090815260116020526040812080548492906116fc9084906133e4565b90915550600090505b8281101561173757611715610f83565b336000908152602460205260409020558061172f816134c2565b915050611705565b505b602354610100900460ff161561184057336000908152600f602052604090205460ff166117a85760405162461bcd60e51b815260206004820152601760248201527f796f7520617265206e6f742077686974656c69737465720000000000000000006044820152606401610dd5565b601454336000908152601160205260409020546117c69084906133e4565b11156117e45760405162461bcd60e51b8152600401610dd59061353d565b33600090815260116020526040812080548492906118039084906133e4565b90915550600090505b8281101561183e5761181c610f83565b3360009081526024602052604090205580611836816134c2565b91505061180c565b505b60195460ff16156118e157601254336000908152601160205260409020546118699084906133e4565b11156118875760405162461bcd60e51b8152600401610dd59061353d565b33600090815260116020526040812080548492906118a69084906133e4565b90915550600090505b82811015610f0b576118bf610f83565b33600090815260246020526040902055806118d9816134c2565b9150506118af565b5050565b6000818152600260205260408120546001600160a01b031680610cc85760405162461bcd60e51b815260206004820152602960248201527f4552433732313a206f776e657220717565727920666f72206e6f6e657869737460448201526832b73a103a37b5b2b760b91b6064820152608401610dd5565b336000908152600b602052604090205460ff16151560011461197d57600080fd5b6019805460ff1916911515919091179055565b336000908152600b602052604090205460609060ff1615156001146119b457600080fd5b600d805480602002602001604051908101604052809291908181526020018280548015610d5657602002820191906000526020600020905b81546001600160a01b031681526001909101906020018083116119ec575050505050905090565b336000908152600b602052604090205460ff161515600114611a3457600080fd5b6001600160a01b0381166000908152600b602052604090205460ff1615611a895760405162461bcd60e51b81526020600482015260096024820152683737ba1030b236b4b760b91b6044820152606401610dd5565b6001600160a01b03166000818152600b60205260408120805460ff19166001908117909155600d805491820181559091527fd7b6990105719101dabeb77144f2a3385c8033acd3af97e9423a695e81ad1eb50180546001600160a01b0319169091179055565b60006001600160a01b038216611b5a5760405162461bcd60e51b815260206004820152602a60248201527f4552433732313a2062616c616e636520717565727920666f7220746865207a65604482015269726f206164647265737360b01b6064820152608401610dd5565b506001600160a01b031660009081526003602052604090205490565b600a546001600160a01b03163314611ba05760405162461bcd60e51b8152600401610dd59061343c565b600a546040516000916001600160a01b0316907f8be0079c531659141344cd1fd0a4f28419497f9722a3daafe3b4186f6b6457e0908390a3600a80546001600160a01b0319169055565b336000908152600b602052604090205460ff161515600114611c0b57600080fd5b6001600160a01b0381166000908152600b60205260408120805460ff19169055805b600d54811015611c8557826001600160a01b0316600d8281548110611c5457611c54613426565b6000918252602090912001546001600160a01b03161415611c73578091505b80611c7d816134c2565b915050611c2d565b505b600d54611c96906001906134dd565b811015611d2157600d611caa8260016133e4565b81548110611cba57611cba613426565b600091825260209091200154600d80546001600160a01b039092169183908110611ce657611ce6613426565b600091825260209091200180546001600160a01b0319166001600160a01b039290921691909117905580611d19816134c2565b915050611c87565b600d805480611d3257611d326134f4565b600082815260209020810160001990810180546001600160a01b03191690550190555050565b336000908152600b602052604090205460ff161515600114611d7957600080fd5b6000805b600e54811015611dd957826001600160a01b0316600e8281548110611da457611da4613426565b6000918252602090912001546001600160a01b03161415611dc757809150611dd9565b80611dd1816134c2565b915050611d7d565b505b600e54611dea906001906134dd565b811015611e7557600e611dfe8260016133e4565b81548110611e0e57611e0e613426565b600091825260209091200154600e80546001600160a01b039092169183908110611e3a57611e3a613426565b600091825260209091200180546001600160a01b0319166001600160a01b039290921691909117905580611e6d816134c2565b915050611ddb565b600e805480611d3257611d326134f4565b60606000611e9383611aef565b905080611eb45760408051600080825260208201909252905b509392505050565b60008167ffffffffffffffff811115611ecf57611ecf61327d565b604051908082528060200260200182016040528015611ef8578160200160208202803683370190505b50905060005b82811015611eac57611f108582611288565b828281518110611f2257611f22613426565b602090810291909101015280611f37816134c2565b915050611efe565b50919050565b336000908152600b602052604090205460ff161515600114611f6657600080fd5b6017805460ff1916911515919091179055565b606060018054610cdd90613399565b336000908152600b602052604090205460609060ff161515600114611fac57600080fd5b6010805480602002602001604051908101604052809291908181526020018280548015610d56576020028201919060005260206000209081546001600160a01b031681526001909101906020018083116119ec575050505050905090565b6001600160a01b0382163314156120635760405162461bcd60e51b815260206004820152601960248201527f4552433732313a20617070726f766520746f2063616c6c6572000000000000006044820152606401610dd5565b3360008181526005602090815260408083206001600160a01b03871680855290835292819020805460ff191686151590811790915590519081529192917f17307eab39ab6107e8899845ad3d59bd9653f200f220920489ca2b5937696c31910160405180910390a35050565b600a546001600160a01b031633146120f95760405162461bcd60e51b8152600401610dd59061343c565b6023805462ff0000191662010000179055565b336000908152600b602052604090205460ff16151560011461212d57600080fd5b601d819055601e829055601c849055601f839055818361214d83876134dd565b612157919061350a565b612161919061351e565b60215550505050565b336000908152600b602052604090205460ff16151560011461218b57600080fd5b60005b81811015610f0b576001600f60008585858181106121ae576121ae613426565b90506020020160208101906121c3919061309c565b6001600160a01b031681526020810191909152604001600020805460ff191691151591909117905560108383838181106121ff576121ff613426565b9050602002016020810190612214919061309c565b81546001810183556000928352602090922090910180546001600160a01b0319166001600160a01b0390921691909117905580612250816134c2565b91505061218e565b612262338361286c565b61227e5760405162461bcd60e51b8152600401610dd590613471565b61228a8484848461296e565b50505050565b6000600e601654815481106122a7576122a7613426565b6000918252602090912001546001600160a01b0316919050565b6000818152600260205260409020546060906001600160a01b03166123405760405162461bcd60e51b815260206004820152602f60248201527f4552433732314d657461646174613a2055524920717565727920666f72206e6f60448201526e3732bc34b9ba32b73a103a37b5b2b760891b6064820152608401610dd5565b60235462010000900460ff1661238257602661235b836129a1565b60405160200161236c929190613590565b6040516020818303038152906040529050919050565b600061238c612a9f565b905060008151116123ac57604051806020016040528060008152506123d7565b806123b6846129a1565b6040516020016123c792919061364b565b6040516020818303038152906040525b9392505050565b336000908152600b602052604090205460609060ff16151560011461240257600080fd5b600e805480602002602001604051908101604052809291908181526020018280548015610d56576020028201919060005260206000209081546001600160a01b031681526001909101906020018083116119ec575050505050905090565b336000908152600b602052604090205460ff16151560011461248157600080fd5b601355565b600a546001600160a01b031633146124b05760405162461bcd60e51b8152600401610dd59061343c565b601a55565b600a546001600160a01b031633146124df5760405162461bcd60e51b8152600401610dd59061343c565b6001600160a01b0381166125445760405162461bcd60e51b815260206004820152602660248201527f4f776e61626c653a206e6577206f776e657220697320746865207a65726f206160448201526564647265737360d01b6064820152608401610dd5565b600a546040516001600160a01b038084169216907f8be0079c531659141344cd1fd0a4f28419497f9722a3daafe3b4186f6b6457e090600090a3600a80546001600160a01b0319166001600160a01b0392909216919091179055565b600a546001600160a01b031633146125ca5760405162461bcd60e51b8152600401610dd59061343c565b602380549115156101000261ff0019909216919091179055565b60006001600160e01b031982166380ac58cd60e01b148061261557506001600160e01b03198216635b5e139f60e01b145b80610cc857506301ffc9a760e01b6001600160e01b0319831614610cc8565b600081815260046020526040902080546001600160a01b0319166001600160a01b0384169081179091558190612669826118e5565b6001600160a01b03167f8c5be1e5ebec7d5bd14f71427d1e84f3dd0314c0f7b2291e5b200ac8c7c3b92560405160405180910390a45050565b6001600160a01b0382166126f85760405162461bcd60e51b815260206004820181905260248201527f4552433732313a206d696e7420746f20746865207a65726f20616464726573736044820152606401610dd5565b6000818152600260205260409020546001600160a01b03161561275d5760405162461bcd60e51b815260206004820152601c60248201527f4552433732313a20746f6b656e20616c7265616479206d696e746564000000006044820152606401610dd5565b61276960008383612aae565b6001600160a01b03821660009081526003602052604081208054600192906127929084906133e4565b909155505060008181526002602052604080822080546001600160a01b0319166001600160a01b03861690811790915590518392907fddf252ad1be2c89b69c2b068fc378daa952ba7f163c4a11628f55a4df523b3ef908290a45050565b6015546040516001600160a01b03909116904780156108fc02916000818181858888f19350505050158015612829573d6000803e3d6000fd5b50600e6016548154811061283f5761283f613426565b600091825260209091200154601580546001600160a01b0319166001600160a01b03909216919091179055565b6000818152600260205260408120546001600160a01b03166128e55760405162461bcd60e51b815260206004820152602c60248201527f4552433732313a206f70657261746f7220717565727920666f72206e6f6e657860448201526b34b9ba32b73a103a37b5b2b760a11b6064820152608401610dd5565b60006128f0836118e5565b9050806001600160a01b0316846001600160a01b0316148061292b5750836001600160a01b031661292084610d60565b6001600160a01b0316145b8061295b57506001600160a01b0380821660009081526005602090815260408083209388168352929052205460ff165b949350505050565b610f0b838383612b66565b612979848484612963565b61298584848484612d11565b61228a5760405162461bcd60e51b8152600401610dd59061368a565b6060816129c55750506040805180820190915260018152600360fc1b602082015290565b8160005b81156129ef57806129d9816134c2565b91506129e89050600a8361350a565b91506129c9565b60008167ffffffffffffffff811115612a0a57612a0a61327d565b6040519080825280601f01601f191660200182016040528015612a34576020820181803683370190505b5090505b841561295b57612a496001836134dd565b9150612a56600a86613412565b612a619060306133e4565b60f81b818381518110612a7657612a76613426565b60200101906001600160f81b031916908160001a905350612a98600a8661350a565b9450612a38565b606060258054610cdd90613399565b6001600160a01b038316612b0957612b0481600880546000838152600960205260408120829055600182018355919091527ff3f7a9fe364faab93b216da50a3214154f22a0a2b415b23a84c8169e8b636ee30155565b612b2c565b816001600160a01b0316836001600160a01b031614612b2c57612b2c8382612e0f565b6001600160a01b038216612b4357610f0b81612eac565b826001600160a01b0316826001600160a01b031614610f0b57610f0b8282612f5b565b826001600160a01b0316612b79826118e5565b6001600160a01b031614612be15760405162461bcd60e51b815260206004820152602960248201527f4552433732313a207472616e73666572206f6620746f6b656e2074686174206960448201526839903737ba1037bbb760b91b6064820152608401610dd5565b6001600160a01b038216612c435760405162461bcd60e51b8152602060048201526024808201527f4552433732313a207472616e7366657220746f20746865207a65726f206164646044820152637265737360e01b6064820152608401610dd5565b612c4e838383612aae565b612c59600082612634565b6001600160a01b0383166000908152600360205260408120805460019290612c829084906134dd565b90915550506001600160a01b0382166000908152600360205260408120805460019290612cb09084906133e4565b909155505060008181526002602052604080822080546001600160a01b0319166001600160a01b0386811691821790925591518493918716917fddf252ad1be2c89b69c2b068fc378daa952ba7f163c4a11628f55a4df523b3ef91a4505050565b60006001600160a01b0384163b15612e0457604051630a85bd0160e11b81526001600160a01b0385169063150b7a0290612d559033908990889088906004016136dc565b6020604051808303816000875af1925050508015612d90575060408051601f3d908101601f19168201909252612d8d91810190613719565b60015b612dea573d808015612dbe576040519150601f19603f3d011682016040523d82523d6000602084013e612dc3565b606091505b508051612de25760405162461bcd60e51b8152600401610dd59061368a565b805181602001fd5b6001600160e01b031916630a85bd0160e11b14905061295b565b506001949350505050565b60006001612e1c84611aef565b612e2691906134dd565b600083815260076020526040902054909150808214612e79576001600160a01b03841660009081526006602090815260408083208584528252808320548484528184208190558352600790915290208190555b5060009182526007602090815260408084208490556001600160a01b039094168352600681528383209183525290812055565b600854600090612ebe906001906134dd565b60008381526009602052604081205460088054939450909284908110612ee657612ee6613426565b906000526020600020015490508060088381548110612f0757612f07613426565b6000918252602080832090910192909255828152600990915260408082208490558582528120556008805480612f3f57612f3f6134f4565b6001900381819060005260206000200160009055905550505050565b6000612f6683611aef565b6001600160a01b039093166000908152600660209081526040808320868452825280832085905593825260079052919091209190915550565b600060208284031215612fb157600080fd5b5035919050565b6001600160e01b03198116811461105e57600080fd5b600060208284031215612fe057600080fd5b81356123d781612fb8565b60005b83811015613006578181015183820152602001612fee565b8381111561228a5750506000910152565b6000815180845261302f816020860160208601612feb565b601f01601f19169290920160200192915050565b6020815260006123d76020830184613017565b80356001600160a01b038116811461306d57600080fd5b919050565b6000806040838503121561308557600080fd5b61308e83613056565b946020939093013593505050565b6000602082840312156130ae57600080fd5b6123d782613056565b8035801515811461306d57600080fd5b6000602082840312156130d957600080fd5b6123d7826130b7565b6000806000606084860312156130f757600080fd5b61310084613056565b925061310e60208501613056565b9150604084013590509250925092565b6000806020838503121561313157600080fd5b823567ffffffffffffffff8082111561314957600080fd5b818501915085601f83011261315d57600080fd5b81358181111561316c57600080fd5b8660208260051b850101111561318157600080fd5b60209290920196919550909350505050565b6020808252825182820181905260009190848201906040850190845b818110156131d45783516001600160a01b0316835292840192918401916001016131af565b50909695505050505050565b6020808252825182820181905260009190848201906040850190845b818110156131d4578351835292840192918401916001016131fc565b6000806040838503121561322b57600080fd5b61323483613056565b9150613242602084016130b7565b90509250929050565b6000806000806080858703121561326157600080fd5b5050823594602084013594506040840135936060013592509050565b634e487b7160e01b600052604160045260246000fd5b600080600080608085870312156132a957600080fd5b6132b285613056565b93506132c060208601613056565b925060408501359150606085013567ffffffffffffffff808211156132e457600080fd5b818701915087601f8301126132f857600080fd5b81358181111561330a5761330a61327d565b604051601f8201601f19908116603f011681019083821181831017156133325761333261327d565b816040528281528a602084870101111561334b57600080fd5b82602086016020830137600060208483010152809550505050505092959194509250565b6000806040838503121561338257600080fd5b61338b83613056565b915061324260208401613056565b600181811c908216806133ad57607f821691505b60208210811415611f3f57634e487b7160e01b600052602260045260246000fd5b634e487b7160e01b600052601160045260246000fd5b600082198211156133f7576133f76133ce565b500190565b634e487b7160e01b600052601260045260246000fd5b600082613421576134216133fc565b500690565b634e487b7160e01b600052603260045260246000fd5b6020808252818101527f4f776e61626c653a2063616c6c6572206973206e6f7420746865206f776e6572604082015260600190565b60208082526031908201527f4552433732313a207472616e736665722063616c6c6572206973206e6f74206f6040820152701ddb995c881b9bdc88185c1c1c9bdd9959607a1b606082015260800190565b60006000198214156134d6576134d66133ce565b5060010190565b6000828210156134ef576134ef6133ce565b500390565b634e487b7160e01b600052603160045260246000fd5b600082613519576135196133fc565b500490565b6000816000190483118215151615613538576135386133ce565b500290565b6020808252601f908201527f594f552048415645205245414348454420594f5552204d4158204c494d495400604082015260600190565b60008151613586818560208601612feb565b9290920192915050565b600080845481600182811c9150808316806135ac57607f831692505b60208084108214156135cc57634e487b7160e01b86526022600452602486fd5b8180156135e057600181146135f15761361e565b60ff1986168952848901965061361e565b60008b81526020902060005b868110156136165781548b8201529085019083016135fd565b505084890196505b5050505050506136426136318286613574565b64173539b7b760d91b815260050190565b95945050505050565b6000835161365d818460208801612feb565b835190830190613671818360208801612feb565b64173539b7b760d91b9101908152600501949350505050565b60208082526032908201527f4552433732313a207472616e7366657220746f206e6f6e20455243373231526560408201527131b2b4bb32b91034b6b83632b6b2b73a32b960711b606082015260800190565b6001600160a01b038581168252841660208201526040810183905260806060820181905260009061370f90830184613017565b9695505050505050565b60006020828403121561372b57600080fd5b81516123d781612fb856fea264697066735822122066cf3fb01a09f144afc6c2c3162052e66e73f99ff5e825b9b5fcb4387907a2bc64736f6c634300080a003368747470733a2f2f697066732e696f2f697066732f516d646a355335636155486e466d37584e64535a56324b51324838796d69364845727055755a5477617453714e672f68747470733a2f2f697066732e696f2f697066732f516d635235437a3775464e78536a4a3558585a724b67343939443469436e316a517677516b447335794e725853592f",
  "linkReferences": {},
  "deployedLinkReferences": {}
}